{
  "_format": "hh-sol-artifact-1",
  "contractName": "Ygt",
  "sourceName": "contracts/Ygt.sol",
  "abi": [
    {
      "inputs": [],
      "stateMutability": "nonpayable",
      "type": "constructor"
    },
    {
      "anonymous": false,
      "inputs": [
        {
          "indexed": true,
          "internalType": "address",
          "name": "owner",
          "type": "address"
        },
        {
          "indexed": true,
          "internalType": "address",
          "name": "approved",
          "type": "address"
        },
        {
          "indexed": true,
          "internalType": "uint256",
          "name": "tokenId",
          "type": "uint256"
        }
      ],
      "name": "Approval",
      "type": "event"
    },
    {
      "anonymous": false,
      "inputs": [
        {
          "indexed": true,
          "internalType": "address",
          "name": "owner",
          "type": "address"
        },
        {
          "indexed": true,
          "internalType": "address",
          "name": "operator",
          "type": "address"
        },
        {
          "indexed": false,
          "internalType": "bool",
          "name": "approved",
          "type": "bool"
        }
      ],
      "name": "ApprovalForAll",
      "type": "event"
    },
    {
      "anonymous": false,
      "inputs": [
        {
          "indexed": false,
          "internalType": "uint256",
          "name": "_fromTokenId",
          "type": "uint256"
        },
        {
          "indexed": false,
          "internalType": "uint256",
          "name": "_toTokenId",
          "type": "uint256"
        }
      ],
      "name": "BatchMetadataUpdate",
      "type": "event"
    },
    {
      "anonymous": false,
      "inputs": [
        {
          "indexed": false,
          "internalType": "uint256",
          "name": "_tokenId",
          "type": "uint256"
        }
      ],
      "name": "MetadataUpdate",
      "type": "event"
    },
    {
      "anonymous": false,
      "inputs": [
        {
          "indexed": true,
          "internalType": "address",
          "name": "previousOwner",
          "type": "address"
        },
        {
          "indexed": true,
          "internalType": "address",
          "name": "newOwner",
          "type": "address"
        }
      ],
      "name": "OwnershipTransferred",
      "type": "event"
    },
    {
      "anonymous": false,
      "inputs": [
        {
          "indexed": true,
          "internalType": "address",
          "name": "from",
          "type": "address"
        },
        {
          "indexed": true,
          "internalType": "address",
          "name": "to",
          "type": "address"
        },
        {
          "indexed": true,
          "internalType": "uint256",
          "name": "tokenId",
          "type": "uint256"
        }
      ],
      "name": "Transfer",
      "type": "event"
    },
    {
      "inputs": [
        {
          "internalType": "address",
          "name": "to",
          "type": "address"
        },
        {
          "internalType": "uint256",
          "name": "tokenId",
          "type": "uint256"
        }
      ],
      "name": "approve",
      "outputs": [],
      "stateMutability": "nonpayable",
      "type": "function"
    },
    {
      "inputs": [
        {
          "internalType": "address",
          "name": "owner",
          "type": "address"
        }
      ],
      "name": "balanceOf",
      "outputs": [
        {
          "internalType": "uint256",
          "name": "",
          "type": "uint256"
        }
      ],
      "stateMutability": "view",
      "type": "function"
    },
    {
      "inputs": [
        {
          "internalType": "uint256",
          "name": "tokenId",
          "type": "uint256"
        }
      ],
      "name": "getApproved",
      "outputs": [
        {
          "internalType": "address",
          "name": "",
          "type": "address"
        }
      ],
      "stateMutability": "view",
      "type": "function"
    },
    {
      "inputs": [
        {
          "internalType": "address",
          "name": "owner",
          "type": "address"
        },
        {
          "internalType": "address",
          "name": "operator",
          "type": "address"
        }
      ],
      "name": "isApprovedForAll",
      "outputs": [
        {
          "internalType": "bool",
          "name": "",
          "type": "bool"
        }
      ],
      "stateMutability": "view",
      "type": "function"
    },
    {
      "inputs": [],
      "name": "name",
      "outputs": [
        {
          "internalType": "string",
          "name": "",
          "type": "string"
        }
      ],
      "stateMutability": "view",
      "type": "function"
    },
    {
      "inputs": [],
      "name": "owner",
      "outputs": [
        {
          "internalType": "address",
          "name": "",
          "type": "address"
        }
      ],
      "stateMutability": "view",
      "type": "function"
    },
    {
      "inputs": [
        {
          "internalType": "uint256",
          "name": "tokenId",
          "type": "uint256"
        }
      ],
      "name": "ownerOf",
      "outputs": [
        {
          "internalType": "address",
          "name": "",
          "type": "address"
        }
      ],
      "stateMutability": "view",
      "type": "function"
    },
    {
      "inputs": [],
      "name": "renounceOwnership",
      "outputs": [],
      "stateMutability": "nonpayable",
      "type": "function"
    },
    {
      "inputs": [
        {
          "internalType": "string",
          "name": "uri",
          "type": "string"
        }
      ],
      "name": "safeMint",
      "outputs": [],
      "stateMutability": "nonpayable",
      "type": "function"
    },
    {
      "inputs": [
        {
          "internalType": "address",
          "name": "from",
          "type": "address"
        },
        {
          "internalType": "address",
          "name": "to",
          "type": "address"
        },
        {
          "internalType": "uint256",
          "name": "tokenId",
          "type": "uint256"
        }
      ],
      "name": "safeTransferFrom",
      "outputs": [],
      "stateMutability": "nonpayable",
      "type": "function"
    },
    {
      "inputs": [
        {
          "internalType": "address",
          "name": "from",
          "type": "address"
        },
        {
          "internalType": "address",
          "name": "to",
          "type": "address"
        },
        {
          "internalType": "uint256",
          "name": "tokenId",
          "type": "uint256"
        },
        {
          "internalType": "bytes",
          "name": "data",
          "type": "bytes"
        }
      ],
      "name": "safeTransferFrom",
      "outputs": [],
      "stateMutability": "nonpayable",
      "type": "function"
    },
    {
      "inputs": [
        {
          "internalType": "address",
          "name": "operator",
          "type": "address"
        },
        {
          "internalType": "bool",
          "name": "approved",
          "type": "bool"
        }
      ],
      "name": "setApprovalForAll",
      "outputs": [],
      "stateMutability": "nonpayable",
      "type": "function"
    },
    {
      "inputs": [
        {
          "internalType": "bytes4",
          "name": "interfaceId",
          "type": "bytes4"
        }
      ],
      "name": "supportsInterface",
      "outputs": [
        {
          "internalType": "bool",
          "name": "",
          "type": "bool"
        }
      ],
      "stateMutability": "view",
      "type": "function"
    },
    {
      "inputs": [],
      "name": "symbol",
      "outputs": [
        {
          "internalType": "string",
          "name": "",
          "type": "string"
        }
      ],
      "stateMutability": "view",
      "type": "function"
    },
    {
      "inputs": [
        {
          "internalType": "uint256",
          "name": "index",
          "type": "uint256"
        }
      ],
      "name": "tokenByIndex",
      "outputs": [
        {
          "internalType": "uint256",
          "name": "",
          "type": "uint256"
        }
      ],
      "stateMutability": "view",
      "type": "function"
    },
    {
      "inputs": [
        {
          "internalType": "address",
          "name": "owner",
          "type": "address"
        },
        {
          "internalType": "uint256",
          "name": "index",
          "type": "uint256"
        }
      ],
      "name": "tokenOfOwnerByIndex",
      "outputs": [
        {
          "internalType": "uint256",
          "name": "",
          "type": "uint256"
        }
      ],
      "stateMutability": "view",
      "type": "function"
    },
    {
      "inputs": [
        {
          "internalType": "uint256",
          "name": "tokenId",
          "type": "uint256"
        }
      ],
      "name": "tokenURI",
      "outputs": [
        {
          "internalType": "string",
          "name": "",
          "type": "string"
        }
      ],
      "stateMutability": "view",
      "type": "function"
    },
    {
      "inputs": [],
      "name": "totalSupply",
      "outputs": [
        {
          "internalType": "uint256",
          "name": "",
          "type": "uint256"
        }
      ],
      "stateMutability": "view",
      "type": "function"
    },
    {
      "inputs": [
        {
          "internalType": "address",
          "name": "from",
          "type": "address"
        },
        {
          "internalType": "address",
          "name": "to",
          "type": "address"
        },
        {
          "internalType": "uint256",
          "name": "tokenId",
          "type": "uint256"
        }
      ],
      "name": "transferFrom",
      "outputs": [],
      "stateMutability": "nonpayable",
      "type": "function"
    },
    {
      "inputs": [
        {
          "internalType": "address",
          "name": "newOwner",
          "type": "address"
        }
      ],
      "name": "transferOwnership",
      "outputs": [],
      "stateMutability": "nonpayable",
      "type": "function"
    }
  ],
  "bytecode": "0x60806040523480156200001157600080fd5b506040518060400160405280600381526020017f79677400000000000000000000000000000000000000000000000000000000008152506040518060400160405280600381526020017f594754000000000000000000000000000000000000000000000000000000000081525081600090816200008f919062000412565b508060019081620000a1919062000412565b505050620000c4620000b8620000ca60201b60201c565b620000d260201b60201c565b620004f9565b600033905090565b6000600b60009054906101000a900473ffffffffffffffffffffffffffffffffffffffff16905081600b60006101000a81548173ffffffffffffffffffffffffffffffffffffffff021916908373ffffffffffffffffffffffffffffffffffffffff1602179055508173ffffffffffffffffffffffffffffffffffffffff168173ffffffffffffffffffffffffffffffffffffffff167f8be0079c531659141344cd1fd0a4f28419497f9722a3daafe3b4186f6b6457e060405160405180910390a35050565b600081519050919050565b7f4e487b7100000000000000000000000000000000000000000000000000000000600052604160045260246000fd5b7f4e487b7100000000000000000000000000000000000000000000000000000000600052602260045260246000fd5b600060028204905060018216806200021a57607f821691505b60208210810362000230576200022f620001d2565b5b50919050565b60008190508160005260206000209050919050565b60006020601f8301049050919050565b600082821b905092915050565b6000600883026200029a7fffffffffffffffffffffffffffffffffffffffffffffffffffffffffffffffff826200025b565b620002a686836200025b565b95508019841693508086168417925050509392505050565b6000819050919050565b6000819050919050565b6000620002f3620002ed620002e784620002be565b620002c8565b620002be565b9050919050565b6000819050919050565b6200030f83620002d2565b620003276200031e82620002fa565b84845462000268565b825550505050565b600090565b6200033e6200032f565b6200034b81848462000304565b505050565b5b8181101562000373576200036760008262000334565b60018101905062000351565b5050565b601f821115620003c2576200038c8162000236565b62000397846200024b565b81016020851015620003a7578190505b620003bf620003b6856200024b565b83018262000350565b50505b505050565b600082821c905092915050565b6000620003e760001984600802620003c7565b1980831691505092915050565b6000620004028383620003d4565b9150826002028217905092915050565b6200041d8262000198565b67ffffffffffffffff811115620004395762000438620001a3565b5b62000445825462000201565b6200045282828562000377565b600060209050601f8311600181146200048a576000841562000475578287015190505b620004818582620003f4565b865550620004f1565b601f1984166200049a8662000236565b60005b82811015620004c4578489015182556001820191506020850194506020810190506200049d565b86831015620004e45784890151620004e0601f891682620003d4565b8355505b6001600288020188555050505b505050505050565b6137df80620005096000396000f3fe608060405234801561001057600080fd5b506004361061012c5760003560e01c8063695850fb116100ad578063a22cb46511610071578063a22cb46514610343578063b88d4fde1461035f578063c87b56dd1461037b578063e985e9c5146103ab578063f2fde38b146103db5761012c565b8063695850fb146102b157806370a08231146102cd578063715018a6146102fd5780638da5cb5b1461030757806395d89b41146103255761012c565b806323b872dd116100f457806323b872dd146101e95780632f745c591461020557806342842e0e146102355780634f6ccce7146102515780636352211e146102815761012c565b806301ffc9a71461013157806306fdde0314610161578063081812fc1461017f578063095ea7b3146101af57806318160ddd146101cb575b600080fd5b61014b6004803603810190610146919061236c565b6103f7565b60405161015891906123b4565b60405180910390f35b610169610409565b604051610176919061245f565b60405180910390f35b610199600480360381019061019491906124b7565b61049b565b6040516101a69190612525565b60405180910390f35b6101c960048036038101906101c4919061256c565b6104e1565b005b6101d36105f8565b6040516101e091906125bb565b60405180910390f35b61020360048036038101906101fe91906125d6565b610605565b005b61021f600480360381019061021a919061256c565b610665565b60405161022c91906125bb565b60405180910390f35b61024f600480360381019061024a91906125d6565b61070a565b005b61026b600480360381019061026691906124b7565b61072a565b60405161027891906125bb565b60405180910390f35b61029b600480360381019061029691906124b7565b61079b565b6040516102a89190612525565b60405180910390f35b6102cb60048036038101906102c6919061275e565b610821565b005b6102e760048036038101906102e291906127a7565b610851565b6040516102f491906125bb565b60405180910390f35b610305610908565b005b61030f61091c565b60405161031c9190612525565b60405180910390f35b61032d610946565b60405161033a919061245f565b60405180910390f35b61035d60048036038101906103589190612800565b6109d8565b005b610379600480360381019061037491906128e1565b6109ee565b005b610395600480360381019061039091906124b7565b610a50565b6040516103a2919061245f565b60405180910390f35b6103c560048036038101906103c09190612964565b610a62565b6040516103d291906123b4565b60405180910390f35b6103f560048036038101906103f091906127a7565b610af6565b005b600061040282610b79565b9050919050565b606060008054610418906129d3565b80601f0160208091040260200160405190810160405280929190818152602001828054610444906129d3565b80156104915780601f1061046657610100808354040283529160200191610491565b820191906000526020600020905b81548152906001019060200180831161047457829003601f168201915b5050505050905090565b60006104a682610bda565b6004600083815260200190815260200160002060009054906101000a900473ffffffffffffffffffffffffffffffffffffffff169050919050565b60006104ec8261079b565b90508073ffffffffffffffffffffffffffffffffffffffff168373ffffffffffffffffffffffffffffffffffffffff160361055c576040517f08c379a000000000000000000000000000000000000000000000000000000000815260040161055390612a76565b60405180910390fd5b8073ffffffffffffffffffffffffffffffffffffffff1661057b610c25565b73ffffffffffffffffffffffffffffffffffffffff1614806105aa57506105a9816105a4610c25565b610a62565b5b6105e9576040517f08c379a00000000000000000000000000000000000000000000000000000000081526004016105e090612b08565b60405180910390fd5b6105f38383610c2d565b505050565b6000600880549050905090565b610616610610610c25565b82610ce6565b610655576040517f08c379a000000000000000000000000000000000000000000000000000000000815260040161064c90612b9a565b60405180910390fd5b610660838383610d7b565b505050565b600061067083610851565b82106106b1576040517f08c379a00000000000000000000000000000000000000000000000000000000081526004016106a890612c2c565b60405180910390fd5b600660008473ffffffffffffffffffffffffffffffffffffffff1673ffffffffffffffffffffffffffffffffffffffff168152602001908152602001600020600083815260200190815260200160002054905092915050565b610725838383604051806020016040528060008152506109ee565b505050565b60006107346105f8565b8210610775576040517f08c379a000000000000000000000000000000000000000000000000000000000815260040161076c90612cbe565b60405180910390fd5b6008828154811061078957610788612cde565b5b90600052602060002001549050919050565b6000806107a783611074565b9050600073ffffffffffffffffffffffffffffffffffffffff168173ffffffffffffffffffffffffffffffffffffffff1603610818576040517f08c379a000000000000000000000000000000000000000000000000000000000815260040161080f90612d59565b60405180910390fd5b80915050919050565b600061082d600c6110b1565b9050610839600c6110bf565b61084333826110d5565b61084d81836110f3565b5050565b60008073ffffffffffffffffffffffffffffffffffffffff168273ffffffffffffffffffffffffffffffffffffffff16036108c1576040517f08c379a00000000000000000000000000000000000000000000000000000000081526004016108b890612deb565b60405180910390fd5b600360008373ffffffffffffffffffffffffffffffffffffffff1673ffffffffffffffffffffffffffffffffffffffff168152602001908152602001600020549050919050565b610910611197565b61091a6000611215565b565b6000600b60009054906101000a900473ffffffffffffffffffffffffffffffffffffffff16905090565b606060018054610955906129d3565b80601f0160208091040260200160405190810160405280929190818152602001828054610981906129d3565b80156109ce5780601f106109a3576101008083540402835291602001916109ce565b820191906000526020600020905b8154815290600101906020018083116109b157829003601f168201915b5050505050905090565b6109ea6109e3610c25565b83836112db565b5050565b6109ff6109f9610c25565b83610ce6565b610a3e576040517f08c379a0000000000000000000000000000000000000000000000000000000008152600401610a3590612b9a565b60405180910390fd5b610a4a84848484611447565b50505050565b6060610a5b826114a3565b9050919050565b6000600560008473ffffffffffffffffffffffffffffffffffffffff1673ffffffffffffffffffffffffffffffffffffffff16815260200190815260200160002060008373ffffffffffffffffffffffffffffffffffffffff1673ffffffffffffffffffffffffffffffffffffffff16815260200190815260200160002060009054906101000a900460ff16905092915050565b610afe611197565b600073ffffffffffffffffffffffffffffffffffffffff168173ffffffffffffffffffffffffffffffffffffffff1603610b6d576040517f08c379a0000000000000000000000000000000000000000000000000000000008152600401610b6490612e7d565b60405180910390fd5b610b7681611215565b50565b6000634906490660e01b7bffffffffffffffffffffffffffffffffffffffffffffffffffffffff1916827bffffffffffffffffffffffffffffffffffffffffffffffffffffffff19161480610bd35750610bd2826115b5565b5b9050919050565b610be38161162f565b610c22576040517f08c379a0000000000000000000000000000000000000000000000000000000008152600401610c1990612d59565b60405180910390fd5b50565b600033905090565b816004600083815260200190815260200160002060006101000a81548173ffffffffffffffffffffffffffffffffffffffff021916908373ffffffffffffffffffffffffffffffffffffffff160217905550808273ffffffffffffffffffffffffffffffffffffffff16610ca08361079b565b73ffffffffffffffffffffffffffffffffffffffff167f8c5be1e5ebec7d5bd14f71427d1e84f3dd0314c0f7b2291e5b200ac8c7c3b92560405160405180910390a45050565b600080610cf28361079b565b90508073ffffffffffffffffffffffffffffffffffffffff168473ffffffffffffffffffffffffffffffffffffffff161480610d345750610d338185610a62565b5b80610d7257508373ffffffffffffffffffffffffffffffffffffffff16610d5a8461049b565b73ffffffffffffffffffffffffffffffffffffffff16145b91505092915050565b8273ffffffffffffffffffffffffffffffffffffffff16610d9b8261079b565b73ffffffffffffffffffffffffffffffffffffffff1614610df1576040517f08c379a0000000000000000000000000000000000000000000000000000000008152600401610de890612f0f565b60405180910390fd5b600073ffffffffffffffffffffffffffffffffffffffff168273ffffffffffffffffffffffffffffffffffffffff1603610e60576040517f08c379a0000000000000000000000000000000000000000000000000000000008152600401610e5790612fa1565b60405180910390fd5b610e6d8383836001611670565b8273ffffffffffffffffffffffffffffffffffffffff16610e8d8261079b565b73ffffffffffffffffffffffffffffffffffffffff1614610ee3576040517f08c379a0000000000000000000000000000000000000000000000000000000008152600401610eda90612f0f565b60405180910390fd5b6004600082815260200190815260200160002060006101000a81549073ffffffffffffffffffffffffffffffffffffffff02191690556001600360008573ffffffffffffffffffffffffffffffffffffffff1673ffffffffffffffffffffffffffffffffffffffff168152602001908152602001600020600082825403925050819055506001600360008473ffffffffffffffffffffffffffffffffffffffff1673ffffffffffffffffffffffffffffffffffffffff16815260200190815260200160002060008282540192505081905550816002600083815260200190815260200160002060006101000a81548173ffffffffffffffffffffffffffffffffffffffff021916908373ffffffffffffffffffffffffffffffffffffffff160217905550808273ffffffffffffffffffffffffffffffffffffffff168473ffffffffffffffffffffffffffffffffffffffff167fddf252ad1be2c89b69c2b068fc378daa952ba7f163c4a11628f55a4df523b3ef60405160405180910390a461106f8383836001611682565b505050565b60006002600083815260200190815260200160002060009054906101000a900473ffffffffffffffffffffffffffffffffffffffff169050919050565b600081600001549050919050565b6001816000016000828254019250508190555050565b6110ef828260405180602001604052806000815250611688565b5050565b6110fc8261162f565b61113b576040517f08c379a000000000000000000000000000000000000000000000000000000000815260040161113290613033565b60405180910390fd5b80600a6000848152602001908152602001600020908161115b91906131ff565b507ff8e1a15aba9398e019f0b49df1a4fde98ee17ae345cb5f6b5e2c27f5033e8ce78260405161118b91906125bb565b60405180910390a15050565b61119f610c25565b73ffffffffffffffffffffffffffffffffffffffff166111bd61091c565b73ffffffffffffffffffffffffffffffffffffffff1614611213576040517f08c379a000000000000000000000000000000000000000000000000000000000815260040161120a9061331d565b60405180910390fd5b565b6000600b60009054906101000a900473ffffffffffffffffffffffffffffffffffffffff16905081600b60006101000a81548173ffffffffffffffffffffffffffffffffffffffff021916908373ffffffffffffffffffffffffffffffffffffffff1602179055508173ffffffffffffffffffffffffffffffffffffffff168173ffffffffffffffffffffffffffffffffffffffff167f8be0079c531659141344cd1fd0a4f28419497f9722a3daafe3b4186f6b6457e060405160405180910390a35050565b8173ffffffffffffffffffffffffffffffffffffffff168373ffffffffffffffffffffffffffffffffffffffff1603611349576040517f08c379a000000000000000000000000000000000000000000000000000000000815260040161134090613389565b60405180910390fd5b80600560008573ffffffffffffffffffffffffffffffffffffffff1673ffffffffffffffffffffffffffffffffffffffff16815260200190815260200160002060008473ffffffffffffffffffffffffffffffffffffffff1673ffffffffffffffffffffffffffffffffffffffff16815260200190815260200160002060006101000a81548160ff0219169083151502179055508173ffffffffffffffffffffffffffffffffffffffff168373ffffffffffffffffffffffffffffffffffffffff167f17307eab39ab6107e8899845ad3d59bd9653f200f220920489ca2b5937696c318360405161143a91906123b4565b60405180910390a3505050565b611452848484610d7b565b61145e848484846116e3565b61149d576040517f08c379a00000000000000000000000000000000000000000000000000000000081526004016114949061341b565b60405180910390fd5b50505050565b60606114ae82610bda565b6000600a600084815260200190815260200160002080546114ce906129d3565b80601f01602080910402602001604051908101604052809291908181526020018280546114fa906129d3565b80156115475780601f1061151c57610100808354040283529160200191611547565b820191906000526020600020905b81548152906001019060200180831161152a57829003601f168201915b50505050509050600061155861186a565b9050600081510361156d5781925050506115b0565b6000825111156115a257808260405160200161158a929190613477565b604051602081830303815290604052925050506115b0565b6115ab84611881565b925050505b919050565b60007f780e9d63000000000000000000000000000000000000000000000000000000007bffffffffffffffffffffffffffffffffffffffffffffffffffffffff1916827bffffffffffffffffffffffffffffffffffffffffffffffffffffffff191614806116285750611627826118e9565b5b9050919050565b60008073ffffffffffffffffffffffffffffffffffffffff1661165183611074565b73ffffffffffffffffffffffffffffffffffffffff1614159050919050565b61167c848484846119cb565b50505050565b50505050565b6116928383611b29565b61169f60008484846116e3565b6116de576040517f08c379a00000000000000000000000000000000000000000000000000000000081526004016116d59061341b565b60405180910390fd5b505050565b60006117048473ffffffffffffffffffffffffffffffffffffffff16611d46565b1561185d578373ffffffffffffffffffffffffffffffffffffffff1663150b7a0261172d610c25565b8786866040518563ffffffff1660e01b815260040161174f94939291906134f0565b6020604051808303816000875af192505050801561178b57506040513d601f19601f820116820180604052508101906117889190613551565b60015b61180d573d80600081146117bb576040519150601f19603f3d011682016040523d82523d6000602084013e6117c0565b606091505b506000815103611805576040517f08c379a00000000000000000000000000000000000000000000000000000000081526004016117fc9061341b565b60405180910390fd5b805181602001fd5b63150b7a0260e01b7bffffffffffffffffffffffffffffffffffffffffffffffffffffffff1916817bffffffffffffffffffffffffffffffffffffffffffffffffffffffff191614915050611862565b600190505b949350505050565b606060405180602001604052806000815250905090565b606061188c82610bda565b600061189661186a565b905060008151116118b657604051806020016040528060008152506118e1565b806118c084611d69565b6040516020016118d1929190613477565b6040516020818303038152906040525b915050919050565b60007f80ac58cd000000000000000000000000000000000000000000000000000000007bffffffffffffffffffffffffffffffffffffffffffffffffffffffff1916827bffffffffffffffffffffffffffffffffffffffffffffffffffffffff191614806119b457507f5b5e139f000000000000000000000000000000000000000000000000000000007bffffffffffffffffffffffffffffffffffffffffffffffffffffffff1916827bffffffffffffffffffffffffffffffffffffffffffffffffffffffff1916145b806119c457506119c382611e37565b5b9050919050565b6119d784848484611ea1565b6001811115611a1b576040517f08c379a0000000000000000000000000000000000000000000000000000000008152600401611a12906135f0565b60405180910390fd5b6000829050600073ffffffffffffffffffffffffffffffffffffffff168573ffffffffffffffffffffffffffffffffffffffff1603611a6257611a5d81611ea7565b611aa1565b8373ffffffffffffffffffffffffffffffffffffffff168573ffffffffffffffffffffffffffffffffffffffff1614611aa057611a9f8582611ef0565b5b5b600073ffffffffffffffffffffffffffffffffffffffff168473ffffffffffffffffffffffffffffffffffffffff1603611ae357611ade8161205d565b611b22565b8473ffffffffffffffffffffffffffffffffffffffff168473ffffffffffffffffffffffffffffffffffffffff1614611b2157611b20848261212e565b5b5b5050505050565b600073ffffffffffffffffffffffffffffffffffffffff168273ffffffffffffffffffffffffffffffffffffffff1603611b98576040517f08c379a0000000000000000000000000000000000000000000000000000000008152600401611b8f9061365c565b60405180910390fd5b611ba18161162f565b15611be1576040517f08c379a0000000000000000000000000000000000000000000000000000000008152600401611bd8906136c8565b60405180910390fd5b611bef600083836001611670565b611bf88161162f565b15611c38576040517f08c379a0000000000000000000000000000000000000000000000000000000008152600401611c2f906136c8565b60405180910390fd5b6001600360008473ffffffffffffffffffffffffffffffffffffffff1673ffffffffffffffffffffffffffffffffffffffff16815260200190815260200160002060008282540192505081905550816002600083815260200190815260200160002060006101000a81548173ffffffffffffffffffffffffffffffffffffffff021916908373ffffffffffffffffffffffffffffffffffffffff160217905550808273ffffffffffffffffffffffffffffffffffffffff16600073ffffffffffffffffffffffffffffffffffffffff167fddf252ad1be2c89b69c2b068fc378daa952ba7f163c4a11628f55a4df523b3ef60405160405180910390a4611d42600083836001611682565b5050565b6000808273ffffffffffffffffffffffffffffffffffffffff163b119050919050565b606060006001611d78846121ad565b01905060008167ffffffffffffffff811115611d9757611d96612633565b5b6040519080825280601f01601f191660200182016040528015611dc95781602001600182028036833780820191505090505b509050600082602001820190505b600115611e2c578080600190039150507f3031323334353637383961626364656600000000000000000000000000000000600a86061a8153600a8581611e2057611e1f6136e8565b5b04945060008503611dd7575b819350505050919050565b60007f01ffc9a7000000000000000000000000000000000000000000000000000000007bffffffffffffffffffffffffffffffffffffffffffffffffffffffff1916827bffffffffffffffffffffffffffffffffffffffffffffffffffffffff1916149050919050565b50505050565b6008805490506009600083815260200190815260200160002081905550600881908060018154018082558091505060019003906000526020600020016000909190919091505550565b60006001611efd84610851565b611f079190613746565b9050600060076000848152602001908152602001600020549050818114611fec576000600660008673ffffffffffffffffffffffffffffffffffffffff1673ffffffffffffffffffffffffffffffffffffffff168152602001908152602001600020600084815260200190815260200160002054905080600660008773ffffffffffffffffffffffffffffffffffffffff1673ffffffffffffffffffffffffffffffffffffffff168152602001908152602001600020600084815260200190815260200160002081905550816007600083815260200190815260200160002081905550505b6007600084815260200190815260200160002060009055600660008573ffffffffffffffffffffffffffffffffffffffff1673ffffffffffffffffffffffffffffffffffffffff16815260200190815260200160002060008381526020019081526020016000206000905550505050565b600060016008805490506120719190613746565b90506000600960008481526020019081526020016000205490506000600883815481106120a1576120a0612cde565b5b9060005260206000200154905080600883815481106120c3576120c2612cde565b5b9060005260206000200181905550816009600083815260200190815260200160002081905550600960008581526020019081526020016000206000905560088054806121125761211161377a565b5b6001900381819060005260206000200160009055905550505050565b600061213983610851565b905081600660008573ffffffffffffffffffffffffffffffffffffffff1673ffffffffffffffffffffffffffffffffffffffff168152602001908152602001600020600083815260200190815260200160002081905550806007600084815260200190815260200160002081905550505050565b600080600090507a184f03e93ff9f4daa797ed6e38ed64bf6a1f010000000000000000831061220b577a184f03e93ff9f4daa797ed6e38ed64bf6a1f0100000000000000008381612201576122006136e8565b5b0492506040810190505b6d04ee2d6d415b85acef81000000008310612248576d04ee2d6d415b85acef8100000000838161223e5761223d6136e8565b5b0492506020810190505b662386f26fc10000831061227757662386f26fc10000838161226d5761226c6136e8565b5b0492506010810190505b6305f5e10083106122a0576305f5e1008381612296576122956136e8565b5b0492506008810190505b61271083106122c55761271083816122bb576122ba6136e8565b5b0492506004810190505b606483106122e857606483816122de576122dd6136e8565b5b0492506002810190505b600a83106122f7576001810190505b80915050919050565b6000604051905090565b600080fd5b600080fd5b60007fffffffff0000000000000000000000000000000000000000000000000000000082169050919050565b61234981612314565b811461235457600080fd5b50565b60008135905061236681612340565b92915050565b6000602082840312156123825761238161230a565b5b600061239084828501612357565b91505092915050565b60008115159050919050565b6123ae81612399565b82525050565b60006020820190506123c960008301846123a5565b92915050565b600081519050919050565b600082825260208201905092915050565b60005b838110156124095780820151818401526020810190506123ee565b60008484015250505050565b6000601f19601f8301169050919050565b6000612431826123cf565b61243b81856123da565b935061244b8185602086016123eb565b61245481612415565b840191505092915050565b600060208201905081810360008301526124798184612426565b905092915050565b6000819050919050565b61249481612481565b811461249f57600080fd5b50565b6000813590506124b18161248b565b92915050565b6000602082840312156124cd576124cc61230a565b5b60006124db848285016124a2565b91505092915050565b600073ffffffffffffffffffffffffffffffffffffffff82169050919050565b600061250f826124e4565b9050919050565b61251f81612504565b82525050565b600060208201905061253a6000830184612516565b92915050565b61254981612504565b811461255457600080fd5b50565b60008135905061256681612540565b92915050565b600080604083850312156125835761258261230a565b5b600061259185828601612557565b92505060206125a2858286016124a2565b9150509250929050565b6125b581612481565b82525050565b60006020820190506125d060008301846125ac565b92915050565b6000806000606084860312156125ef576125ee61230a565b5b60006125fd86828701612557565b935050602061260e86828701612557565b925050604061261f868287016124a2565b9150509250925092565b600080fd5b600080fd5b7f4e487b7100000000000000000000000000000000000000000000000000000000600052604160045260246000fd5b61266b82612415565b810181811067ffffffffffffffff8211171561268a57612689612633565b5b80604052505050565b600061269d612300565b90506126a98282612662565b919050565b600067ffffffffffffffff8211156126c9576126c8612633565b5b6126d282612415565b9050602081019050919050565b82818337600083830152505050565b60006127016126fc846126ae565b612693565b90508281526020810184848401111561271d5761271c61262e565b5b6127288482856126df565b509392505050565b600082601f83011261274557612744612629565b5b81356127558482602086016126ee565b91505092915050565b6000602082840312156127745761277361230a565b5b600082013567ffffffffffffffff8111156127925761279161230f565b5b61279e84828501612730565b91505092915050565b6000602082840312156127bd576127bc61230a565b5b60006127cb84828501612557565b91505092915050565b6127dd81612399565b81146127e857600080fd5b50565b6000813590506127fa816127d4565b92915050565b600080604083850312156128175761281661230a565b5b600061282585828601612557565b9250506020612836858286016127eb565b9150509250929050565b600067ffffffffffffffff82111561285b5761285a612633565b5b61286482612415565b9050602081019050919050565b600061288461287f84612840565b612693565b9050828152602081018484840111156128a05761289f61262e565b5b6128ab8482856126df565b509392505050565b600082601f8301126128c8576128c7612629565b5b81356128d8848260208601612871565b91505092915050565b600080600080608085870312156128fb576128fa61230a565b5b600061290987828801612557565b945050602061291a87828801612557565b935050604061292b878288016124a2565b925050606085013567ffffffffffffffff81111561294c5761294b61230f565b5b612958878288016128b3565b91505092959194509250565b6000806040838503121561297b5761297a61230a565b5b600061298985828601612557565b925050602061299a85828601612557565b9150509250929050565b7f4e487b7100000000000000000000000000000000000000000000000000000000600052602260045260246000fd5b600060028204905060018216806129eb57607f821691505b6020821081036129fe576129fd6129a4565b5b50919050565b7f4552433732313a20617070726f76616c20746f2063757272656e74206f776e6560008201527f7200000000000000000000000000000000000000000000000000000000000000602082015250565b6000612a606021836123da565b9150612a6b82612a04565b604082019050919050565b60006020820190508181036000830152612a8f81612a53565b9050919050565b7f4552433732313a20617070726f76652063616c6c6572206973206e6f7420746f60008201527f6b656e206f776e6572206f7220617070726f76656420666f7220616c6c000000602082015250565b6000612af2603d836123da565b9150612afd82612a96565b604082019050919050565b60006020820190508181036000830152612b2181612ae5565b9050919050565b7f4552433732313a2063616c6c6572206973206e6f7420746f6b656e206f776e6560008201527f72206f7220617070726f76656400000000000000000000000000000000000000602082015250565b6000612b84602d836123da565b9150612b8f82612b28565b604082019050919050565b60006020820190508181036000830152612bb381612b77565b9050919050565b7f455243373231456e756d657261626c653a206f776e657220696e646578206f7560008201527f74206f6620626f756e6473000000000000000000000000000000000000000000602082015250565b6000612c16602b836123da565b9150612c2182612bba565b604082019050919050565b60006020820190508181036000830152612c4581612c09565b9050919050565b7f455243373231456e756d657261626c653a20676c6f62616c20696e646578206f60008201527f7574206f6620626f756e64730000000000000000000000000000000000000000602082015250565b6000612ca8602c836123da565b9150612cb382612c4c565b604082019050919050565b60006020820190508181036000830152612cd781612c9b565b9050919050565b7f4e487b7100000000000000000000000000000000000000000000000000000000600052603260045260246000fd5b7f4552433732313a20696e76616c696420746f6b656e2049440000000000000000600082015250565b6000612d436018836123da565b9150612d4e82612d0d565b602082019050919050565b60006020820190508181036000830152612d7281612d36565b9050919050565b7f4552433732313a2061646472657373207a65726f206973206e6f74206120766160008201527f6c6964206f776e65720000000000000000000000000000000000000000000000602082015250565b6000612dd56029836123da565b9150612de082612d79565b604082019050919050565b60006020820190508181036000830152612e0481612dc8565b9050919050565b7f4f776e61626c653a206e6577206f776e657220697320746865207a65726f206160008201527f6464726573730000000000000000000000000000000000000000000000000000602082015250565b6000612e676026836123da565b9150612e7282612e0b565b604082019050919050565b60006020820190508181036000830152612e9681612e5a565b9050919050565b7f4552433732313a207472616e736665722066726f6d20696e636f72726563742060008201527f6f776e6572000000000000000000000000000000000000000000000000000000602082015250565b6000612ef96025836123da565b9150612f0482612e9d565b604082019050919050565b60006020820190508181036000830152612f2881612eec565b9050919050565b7f4552433732313a207472616e7366657220746f20746865207a65726f2061646460008201527f7265737300000000000000000000000000000000000000000000000000000000602082015250565b6000612f8b6024836123da565b9150612f9682612f2f565b604082019050919050565b60006020820190508181036000830152612fba81612f7e565b9050919050565b7f45524337323155524953746f726167653a2055524920736574206f66206e6f6e60008201527f6578697374656e7420746f6b656e000000000000000000000000000000000000602082015250565b600061301d602e836123da565b915061302882612fc1565b604082019050919050565b6000602082019050818103600083015261304c81613010565b9050919050565b60008190508160005260206000209050919050565b60006020601f8301049050919050565b600082821b905092915050565b6000600883026130b57fffffffffffffffffffffffffffffffffffffffffffffffffffffffffffffffff82613078565b6130bf8683613078565b95508019841693508086168417925050509392505050565b6000819050919050565b60006130fc6130f76130f284612481565b6130d7565b612481565b9050919050565b6000819050919050565b613116836130e1565b61312a61312282613103565b848454613085565b825550505050565b600090565b61313f613132565b61314a81848461310d565b505050565b5b8181101561316e57613163600082613137565b600181019050613150565b5050565b601f8211156131b35761318481613053565b61318d84613068565b8101602085101561319c578190505b6131b06131a885613068565b83018261314f565b50505b505050565b600082821c905092915050565b60006131d6600019846008026131b8565b1980831691505092915050565b60006131ef83836131c5565b9150826002028217905092915050565b613208826123cf565b67ffffffffffffffff81111561322157613220612633565b5b61322b82546129d3565b613236828285613172565b600060209050601f8311600181146132695760008415613257578287015190505b61326185826131e3565b8655506132c9565b601f19841661327786613053565b60005b8281101561329f5784890151825560018201915060208501945060208101905061327a565b868310156132bc57848901516132b8601f8916826131c5565b8355505b6001600288020188555050505b505050505050565b7f4f776e61626c653a2063616c6c6572206973206e6f7420746865206f776e6572600082015250565b60006133076020836123da565b9150613312826132d1565b602082019050919050565b60006020820190508181036000830152613336816132fa565b9050919050565b7f4552433732313a20617070726f766520746f2063616c6c657200000000000000600082015250565b60006133736019836123da565b915061337e8261333d565b602082019050919050565b600060208201905081810360008301526133a281613366565b9050919050565b7f4552433732313a207472616e7366657220746f206e6f6e20455243373231526560008201527f63656976657220696d706c656d656e7465720000000000000000000000000000602082015250565b60006134056032836123da565b9150613410826133a9565b604082019050919050565b60006020820190508181036000830152613434816133f8565b9050919050565b600081905092915050565b6000613451826123cf565b61345b818561343b565b935061346b8185602086016123eb565b80840191505092915050565b60006134838285613446565b915061348f8284613446565b91508190509392505050565b600081519050919050565b600082825260208201905092915050565b60006134c28261349b565b6134cc81856134a6565b93506134dc8185602086016123eb565b6134e581612415565b840191505092915050565b60006080820190506135056000830187612516565b6135126020830186612516565b61351f60408301856125ac565b818103606083015261353181846134b7565b905095945050505050565b60008151905061354b81612340565b92915050565b6000602082840312156135675761356661230a565b5b60006135758482850161353c565b91505092915050565b7f455243373231456e756d657261626c653a20636f6e736563757469766520747260008201527f616e7366657273206e6f7420737570706f727465640000000000000000000000602082015250565b60006135da6035836123da565b91506135e58261357e565b604082019050919050565b60006020820190508181036000830152613609816135cd565b9050919050565b7f4552433732313a206d696e7420746f20746865207a65726f2061646472657373600082015250565b60006136466020836123da565b915061365182613610565b602082019050919050565b6000602082019050818103600083015261367581613639565b9050919050565b7f4552433732313a20746f6b656e20616c7265616479206d696e74656400000000600082015250565b60006136b2601c836123da565b91506136bd8261367c565b602082019050919050565b600060208201905081810360008301526136e1816136a5565b9050919050565b7f4e487b7100000000000000000000000000000000000000000000000000000000600052601260045260246000fd5b7f4e487b7100000000000000000000000000000000000000000000000000000000600052601160045260246000fd5b600061375182612481565b915061375c83612481565b925082820390508181111561377457613773613717565b5b92915050565b7f4e487b7100000000000000000000000000000000000000000000000000000000600052603160045260246000fdfea2646970667358221220f4cc7fa57da92785ed6f229f3b23a48a2d3d9c93ee136b6bff31bd06dc70cda864736f6c63430008120033",
  "linkReferences": {},
  "deployedLinkReferences": {}
}